{
  "contractName": "Election",
  "abi": [
    {
      "inputs": [
        {
          "internalType": "address",
          "name": "authority",
          "type": "address"
        },
        {
          "internalType": "string",
          "name": "name",
          "type": "string"
        },
        {
          "internalType": "string",
          "name": "description",
          "type": "string"
        }
      ],
      "stateMutability": "nonpayable",
      "type": "constructor"
    },
    {
      "inputs": [
        {
          "internalType": "uint8",
          "name": "",
          "type": "uint8"
        }
      ],
      "name": "candidates",
      "outputs": [
        {
          "internalType": "string",
          "name": "candidate_name",
          "type": "string"
        },
        {
          "internalType": "string",
          "name": "candidate_description",
          "type": "string"
        },
        {
          "internalType": "string",
          "name": "imgHash",
          "type": "string"
        },
        {
          "internalType": "uint8",
          "name": "voteCount",
          "type": "uint8"
        },
        {
          "internalType": "string",
          "name": "email",
          "type": "string"
        }
      ],
      "stateMutability": "view",
      "type": "function"
    },
    {
      "inputs": [
        {
          "internalType": "string",
          "name": "candidate_name",
          "type": "string"
        },
        {
          "internalType": "string",
          "name": "candidate_description",
          "type": "string"
        },
        {
          "internalType": "string",
          "name": "imgHash",
          "type": "string"
        },
        {
          "internalType": "string",
          "name": "email",
          "type": "string"
        }
      ],
      "name": "addCandidate",
      "outputs": [],
      "stateMutability": "nonpayable",
      "type": "function"
    },
    {
      "inputs": [
        {
          "internalType": "uint8",
          "name": "candidateID",
          "type": "uint8"
        },
        {
          "internalType": "string",
          "name": "e",
          "type": "string"
        }
      ],
      "name": "vote",
      "outputs": [],
      "stateMutability": "nonpayable",
      "type": "function"
    },
    {
      "inputs": [],
      "name": "getNumOfCandidates",
      "outputs": [
        {
          "internalType": "uint8",
          "name": "",
          "type": "uint8"
        }
      ],
      "stateMutability": "view",
      "type": "function"
    },
    {
      "inputs": [],
      "name": "getNumOfVoters",
      "outputs": [
        {
          "internalType": "uint8",
          "name": "",
          "type": "uint8"
        }
      ],
      "stateMutability": "view",
      "type": "function"
    },
    {
      "inputs": [
        {
          "internalType": "uint8",
          "name": "candidateID",
          "type": "uint8"
        }
      ],
      "name": "getCandidate",
      "outputs": [
        {
          "internalType": "string",
          "name": "",
          "type": "string"
        },
        {
          "internalType": "string",
          "name": "",
          "type": "string"
        },
        {
          "internalType": "string",
          "name": "",
          "type": "string"
        },
        {
          "internalType": "uint8",
          "name": "",
          "type": "uint8"
        },
        {
          "internalType": "string",
          "name": "",
          "type": "string"
        }
      ],
      "stateMutability": "view",
      "type": "function"
    },
    {
      "inputs": [],
      "name": "winnerCandidate",
      "outputs": [
        {
          "internalType": "uint8",
          "name": "",
          "type": "uint8"
        }
      ],
      "stateMutability": "view",
      "type": "function"
    },
    {
      "inputs": [],
      "name": "getElectionDetails",
      "outputs": [
        {
          "internalType": "string",
          "name": "",
          "type": "string"
        },
        {
          "internalType": "string",
          "name": "",
          "type": "string"
        }
      ],
      "stateMutability": "view",
      "type": "function"
    }
  ],
  "bytecode": "0x60806040523480156200001157600080fd5b506040516200177a3803806200177a833981810160405281019062000037919062000206565b826000806101000a81548173ffffffffffffffffffffffffffffffffffffffff021916908373ffffffffffffffffffffffffffffffffffffffff16021790555081600190805190602001906200008f929190620000cd565b508060029080519060200190620000a8929190620000cd565b506001600360006101000a81548160ff0219169083151502179055505050506200040d565b828054620000db906200035f565b90600052602060002090601f016020900481019282620000ff57600085556200014b565b82601f106200011a57805160ff19168380011785556200014b565b828001600101855582156200014b579182015b828111156200014a5782518255916020019190600101906200012d565b5b5090506200015a91906200015e565b5090565b5b80821115620001795760008160009055506001016200015f565b5090565b6000620001946200018e84620002c2565b6200028e565b905082815260208101848484011115620001ad57600080fd5b620001ba84828562000329565b509392505050565b600081519050620001d381620003f3565b92915050565b600082601f830112620001eb57600080fd5b8151620001fd8482602086016200017d565b91505092915050565b6000806000606084860312156200021c57600080fd5b60006200022c86828701620001c2565b935050602084015167ffffffffffffffff8111156200024a57600080fd5b6200025886828701620001d9565b925050604084015167ffffffffffffffff8111156200027657600080fd5b6200028486828701620001d9565b9150509250925092565b6000604051905081810181811067ffffffffffffffff82111715620002b857620002b7620003c4565b5b8060405250919050565b600067ffffffffffffffff821115620002e057620002df620003c4565b5b601f19601f8301169050602081019050919050565b6000620003028262000309565b9050919050565b600073ffffffffffffffffffffffffffffffffffffffff82169050919050565b60005b83811015620003495780820151818401526020810190506200032c565b8381111562000359576000848401525b50505050565b600060028204905060018216806200037857607f821691505b602082108114156200038f576200038e62000395565b5b50919050565b7f4e487b7100000000000000000000000000000000000000000000000000000000600052602260045260246000fd5b7f4e487b7100000000000000000000000000000000000000000000000000000000600052604160045260246000fd5b620003fe81620002f5565b81146200040a57600080fd5b50565b61135d806200041d6000396000f3fe608060405234801561001057600080fd5b50600436106100885760003560e01c8063b224c40a1161005b578063b224c40a14610119578063cde9370f14610135578063e8685ba114610169578063ed836bc31461018757610088565b806342b03cc91461008d57806365fc783c146100a95780636d6277f4146100c7578063a15148d1146100fb575b600080fd5b6100a760048036038101906100a29190610dee565b6101a6565b005b6100b1610352565b6040516100be9190611124565b60405180910390f35b6100e160048036038101906100dc9190610eb1565b610369565b6040516100f2959493929190611075565b60405180910390f35b6101036105cc565b6040516101109190611124565b60405180910390f35b610133600480360381019061012e9190610eda565b610730565b005b61014f600480360381019061014a9190610eb1565b6108aa565b604051610160959493929190611075565b60405180910390f35b610171610b90565b60405161017e9190611124565b60405180910390f35b61018f610ba7565b60405161019d92919061103e565b60405180910390f35b60008054906101000a900473ffffffffffffffffffffffffffffffffffffffff1673ffffffffffffffffffffffffffffffffffffffff163373ffffffffffffffffffffffffffffffffffffffff1614610234576040517f08c379a000000000000000000000000000000000000000000000000000000000815260040161022b90611104565b60405180910390fd5b60006006600081819054906101000a900460ff168092919061025590611248565b91906101000a81548160ff021916908360ff16021790555090506040518060a00160405280868152602001858152602001848152602001600060ff16815260200183815250600460008360ff1660ff16815260200190815260200160002060008201518160000190805190602001906102cf929190610cce565b5060208201518160010190805190602001906102ec929190610cce565b506040820151816002019080519060200190610309929190610cce565b5060608201518160030160006101000a81548160ff021916908360ff1602179055506080820151816004019080519060200190610347929190610cce565b509050505050505050565b6000600660019054906101000a900460ff16905090565b600460205280600052604060002060009150905080600001805461038c90611216565b80601f01602080910402602001604051908101604052809291908181526020018280546103b890611216565b80156104055780601f106103da57610100808354040283529160200191610405565b820191906000526020600020905b8154815290600101906020018083116103e857829003601f168201915b50505050509080600101805461041a90611216565b80601f016020809104026020016040519081016040528092919081815260200182805461044690611216565b80156104935780601f1061046857610100808354040283529160200191610493565b820191906000526020600020905b81548152906001019060200180831161047657829003601f168201915b5050505050908060020180546104a890611216565b80601f01602080910402602001604051908101604052809291908181526020018280546104d490611216565b80156105215780601f106104f657610100808354040283529160200191610521565b820191906000526020600020905b81548152906001019060200180831161050457829003601f168201915b5050505050908060030160009054906101000a900460ff169080600401805461054990611216565b80601f016020809104026020016040519081016040528092919081815260200182805461057590611216565b80156105c25780601f10610597576101008083540402835291602001916105c2565b820191906000526020600020905b8154815290600101906020018083116105a557829003601f168201915b5050505050905085565b60008060009054906101000a900473ffffffffffffffffffffffffffffffffffffffff1673ffffffffffffffffffffffffffffffffffffffff163373ffffffffffffffffffffffffffffffffffffffff161461065d576040517f08c379a000000000000000000000000000000000000000000000000000000000815260040161065490611104565b60405180910390fd5b6000600460008060ff16815260200190815260200160002060030160009054906101000a900460ff169050600080600190505b600660009054906101000a900460ff1660ff168160ff16101561072757600460008260ff1660ff16815260200190815260200160002060030160009054906101000a900460ff1660ff168360ff16101561071457600460008260ff1660ff16815260200190815260200160002060030160009054906101000a900460ff1692508091505b808061071f90611248565b915050610690565b50809250505090565b6005816040516107409190611027565b908152602001604051809103902060000160019054906101000a900460ff161561079f576040517f08c379a0000000000000000000000000000000000000000000000000000000008152600401610796906110e4565b60405180910390fd5b60405180604001604052808360ff168152602001600115158152506005826040516107ca9190611027565b908152602001604051809103902060008201518160000160006101000a81548160ff021916908360ff16021790555060208201518160000160016101000a81548160ff0219169083151502179055509050506006600181819054906101000a900460ff168092919061083b90611248565b91906101000a81548160ff021916908360ff16021790555050600460008360ff1660ff168152602001908152602001600020600301600081819054906101000a900460ff168092919061088d90611248565b91906101000a81548160ff021916908360ff160217905550505050565b606080606060006060600460008760ff1660ff168152602001908152602001600020600001600460008860ff1660ff168152602001908152602001600020600101600460008960ff1660ff168152602001908152602001600020600201600460008a60ff1660ff16815260200190815260200160002060030160009054906101000a900460ff16600460008b60ff1660ff16815260200190815260200160002060040184805461095990611216565b80601f016020809104026020016040519081016040528092919081815260200182805461098590611216565b80156109d25780601f106109a7576101008083540402835291602001916109d2565b820191906000526020600020905b8154815290600101906020018083116109b557829003601f168201915b505050505094508380546109e590611216565b80601f0160208091040260200160405190810160405280929190818152602001828054610a1190611216565b8015610a5e5780601f10610a3357610100808354040283529160200191610a5e565b820191906000526020600020905b815481529060010190602001808311610a4157829003601f168201915b50505050509350828054610a7190611216565b80601f0160208091040260200160405190810160405280929190818152602001828054610a9d90611216565b8015610aea5780601f10610abf57610100808354040283529160200191610aea565b820191906000526020600020905b815481529060010190602001808311610acd57829003601f168201915b50505050509250808054610afd90611216565b80601f0160208091040260200160405190810160405280929190818152602001828054610b2990611216565b8015610b765780601f10610b4b57610100808354040283529160200191610b76565b820191906000526020600020905b815481529060010190602001808311610b5957829003601f168201915b505050505090509450945094509450945091939590929450565b6000600660009054906101000a900460ff16905090565b60608060016002818054610bba90611216565b80601f0160208091040260200160405190810160405280929190818152602001828054610be690611216565b8015610c335780601f10610c0857610100808354040283529160200191610c33565b820191906000526020600020905b815481529060010190602001808311610c1657829003601f168201915b50505050509150808054610c4690611216565b80601f0160208091040260200160405190810160405280929190818152602001828054610c7290611216565b8015610cbf5780601f10610c9457610100808354040283529160200191610cbf565b820191906000526020600020905b815481529060010190602001808311610ca257829003601f168201915b50505050509050915091509091565b828054610cda90611216565b90600052602060002090601f016020900481019282610cfc5760008555610d43565b82601f10610d1557805160ff1916838001178555610d43565b82800160010185558215610d43579182015b82811115610d42578251825591602001919060010190610d27565b5b509050610d509190610d54565b5090565b5b80821115610d6d576000816000905550600101610d55565b5090565b6000610d84610d7f84611170565b61113f565b905082815260208101848484011115610d9c57600080fd5b610da78482856111d4565b509392505050565b600082601f830112610dc057600080fd5b8135610dd0848260208601610d71565b91505092915050565b600081359050610de881611310565b92915050565b60008060008060808587031215610e0457600080fd5b600085013567ffffffffffffffff811115610e1e57600080fd5b610e2a87828801610daf565b945050602085013567ffffffffffffffff811115610e4757600080fd5b610e5387828801610daf565b935050604085013567ffffffffffffffff811115610e7057600080fd5b610e7c87828801610daf565b925050606085013567ffffffffffffffff811115610e9957600080fd5b610ea587828801610daf565b91505092959194509250565b600060208284031215610ec357600080fd5b6000610ed184828501610dd9565b91505092915050565b60008060408385031215610eed57600080fd5b6000610efb85828601610dd9565b925050602083013567ffffffffffffffff811115610f1857600080fd5b610f2485828601610daf565b9150509250929050565b6000610f39826111a0565b610f4381856111ab565b9350610f538185602086016111e3565b610f5c816112ff565b840191505092915050565b6000610f72826111a0565b610f7c81856111bc565b9350610f8c8185602086016111e3565b80840191505092915050565b6000610fa5601c836111ab565b91507f4572726f723a596f752063616e6e6f7420646f75626c6520766f7465000000006000830152602082019050919050565b6000610fe56015836111ab565b91507f4572726f723a204163636573732044656e6965642e00000000000000000000006000830152602082019050919050565b611021816111c7565b82525050565b60006110338284610f67565b915081905092915050565b600060408201905081810360008301526110588185610f2e565b9050818103602083015261106c8184610f2e565b90509392505050565b600060a082019050818103600083015261108f8188610f2e565b905081810360208301526110a38187610f2e565b905081810360408301526110b78186610f2e565b90506110c66060830185611018565b81810360808301526110d88184610f2e565b90509695505050505050565b600060208201905081810360008301526110fd81610f98565b9050919050565b6000602082019050818103600083015261111d81610fd8565b9050919050565b60006020820190506111396000830184611018565b92915050565b6000604051905081810181811067ffffffffffffffff82111715611166576111656112d0565b5b8060405250919050565b600067ffffffffffffffff82111561118b5761118a6112d0565b5b601f19601f8301169050602081019050919050565b600081519050919050565b600082825260208201905092915050565b600081905092915050565b600060ff82169050919050565b82818337600083830152505050565b60005b838110156112015780820151818401526020810190506111e6565b83811115611210576000848401525b50505050565b6000600282049050600182168061122e57607f821691505b60208210811415611242576112416112a1565b5b50919050565b6000611253826111c7565b915060ff82141561126757611266611272565b5b600182019050919050565b7f4e487b7100000000000000000000000000000000000000000000000000000000600052601160045260246000fd5b7f4e487b7100000000000000000000000000000000000000000000000000000000600052602260045260246000fd5b7f4e487b7100000000000000000000000000000000000000000000000000000000600052604160045260246000fd5b6000601f19601f8301169050919050565b611319816111c7565b811461132457600080fd5b5056fea26469706673582212205c35b87cb059c8b6aeddb369561d698a34720ea20cfde17c3eef6d0605b8f77164736f6c63430008000033",
  "immutableReferences": {},
  "source": "//SPDX-License-Identifier: Unlicense\npragma solidity ^0.8.0;\n\ncontract ElectionFact {\n    \n    struct ElectionDet {\n        address deployedAddress;\n        string el_n;\n        string el_d;\n    }\n    \n    mapping(string=>ElectionDet) companyEmail;\n    \n    function createElection(string memory email,string memory election_name, string memory election_description) public{\n        address newElection = address(new Election(msg.sender, election_name, election_description));\n        // address newElection = new Election(msg.sender, election_name, election_description);\n        \n        companyEmail[email].deployedAddress = newElection;\n        companyEmail[email].el_n = election_name;\n        companyEmail[email].el_d = election_description;\n    }\n    \n    function getDeployedElection(string memory email) public view returns (address, string memory, string memory) {\n        address val =  companyEmail[email].deployedAddress;\n        if(val == address(0)) \n            return (address(0),\"\",\"Create an election.\");\n        else\n            return (companyEmail[email].deployedAddress,companyEmail[email].el_n,companyEmail[email].el_d);\n    }\n}\n\ncontract Election {\n\n    //election_authority's address\n    address election_authority;\n    string election_name;\n    string election_description;\n    bool status;\n    \n    //election_authority's address taken when it deploys the contract\n    constructor(address authority , string memory name, string memory description) {\n        election_authority = authority;\n        election_name = name;\n        election_description = description;\n        status = true;\n    }\n\n    //Only election_authority can call this function\n    modifier owner() {\n        require(msg.sender == election_authority, \"Error: Access Denied.\");\n        _;\n    }\n\n    //candidate election_description\n    struct Candidate {\n        string candidate_name;\n        string candidate_description;\n        string imgHash;\n        uint8 voteCount;\n        string email;\n    }\n\n    //candidate mapping\n    mapping(uint8=>Candidate) public candidates;\n\n    //voter election_description\n    struct Voter {\n        uint8 candidate_id_voted;\n        bool voted;\n    }\n\n    //voter mapping\n    mapping(string=>Voter) voters;\n\n    //counter of number of candidates\n    uint8 numCandidates;\n\n    //counter of number of voters\n    uint8 numVoters;\n\n    //function to add candidate to mapping\n    function addCandidate(string memory candidate_name, string memory candidate_description, string memory imgHash,string memory email) public owner {\n        uint8 candidateID = numCandidates++; //assign id of the candidate\n        candidates[candidateID] = Candidate(candidate_name,candidate_description,imgHash,0,email); //add the values to the mapping\n    }\n    //function to vote and check for double voting\n\n    function vote(uint8 candidateID, string memory e) public {\n\n        //if false the vote will be registered\n        require(!voters[e].voted, \"Error:You cannot double vote\");\n        \n        voters[e] = Voter (candidateID,true); //add the values to the mapping\n        numVoters++;\n        candidates[candidateID].voteCount++; //increment vote counter of candidate\n        \n    }\n\n    //function to get count of candidates\n    function getNumOfCandidates() public view returns(uint8) {\n        return numCandidates;\n    }\n\n    //function to get count of voters\n    function getNumOfVoters() public view returns(uint8) {\n        return numVoters;\n    }\n\n    //function to get candidate information\n    function getCandidate(uint8 candidateID) public view returns (string memory, string memory, string memory, uint8,string memory) {\n        return (candidates[candidateID].candidate_name, candidates[candidateID].candidate_description, candidates[candidateID].imgHash, candidates[candidateID].voteCount, candidates[candidateID].email);\n    } \n\n    //function to return winner candidate information\n    function winnerCandidate() public view owner returns (uint8) {\n        uint8 largestVotes = candidates[0].voteCount;\n        uint8 candidateID;\n        for(uint8 i = 1;i<numCandidates;i++) {\n            if(largestVotes < candidates[i].voteCount) {\n                largestVotes = candidates[i].voteCount;\n                candidateID = i;\n            }\n        }\n        return (candidateID);\n    }\n    \n    function getElectionDetails() public view returns(string memory, string memory) {\n        return (election_name,election_description);    \n    }\n}",
  "sourcePath": "/Users/alghafary/Documents/Developer/nextJS/raya-vote-testnet/smart_contract/contracts/Transaction.sol",
  "compiler": {
    "name": "solc",
    "version": "0.8.0+commit.c7dfd78e.Emscripten.clang"
  },
  "schemaVersion": "3.4.4",
  "updatedAt": "2025-01-24T09:08:31.928Z",
  "devdoc": {
    "kind": "dev",
    "methods": {},
    "version": 1
  },
  "userdoc": {
    "kind": "user",
    "methods": {},
    "version": 1
  }
}